{
  "_format": "hh-sol-artifact-1",
  "contractName": "EasySwapOrderBook",
  "sourceName": "contracts/EasySwapOrderBook.sol",
  "abi": [
    {
      "inputs": [],
      "name": "CannotFindNextEmptyKey",
      "type": "error"
    },
    {
      "inputs": [],
      "name": "CannotFindPrevEmptyKey",
      "type": "error"
    },
    {
      "inputs": [
        {
          "internalType": "OrderKey",
          "name": "orderKey",
          "type": "bytes32"
        }
      ],
      "name": "CannotInsertDuplicateOrder",
      "type": "error"
    },
    {
      "inputs": [],
      "name": "CannotInsertEmptyKey",
      "type": "error"
    },
    {
      "inputs": [],
      "name": "CannotInsertExistingKey",
      "type": "error"
    },
    {
      "inputs": [],
      "name": "CannotRemoveEmptyKey",
      "type": "error"
    },
    {
      "inputs": [],
      "name": "CannotRemoveMissingKey",
      "type": "error"
    },
    {
      "inputs": [],
      "name": "EnforcedPause",
      "type": "error"
    },
    {
      "inputs": [],
      "name": "ExpectedPause",
      "type": "error"
    },
    {
      "inputs": [],
      "name": "InvalidInitialization",
      "type": "error"
    },
    {
      "inputs": [],
      "name": "NotInitializing",
      "type": "error"
    },
    {
      "inputs": [
        {
          "internalType": "address",
          "name": "owner",
          "type": "address"
        }
      ],
      "name": "OwnableInvalidOwner",
      "type": "error"
    },
    {
      "inputs": [
        {
          "internalType": "address",
          "name": "account",
          "type": "address"
        }
      ],
      "name": "OwnableUnauthorizedAccount",
      "type": "error"
    },
    {
      "inputs": [],
      "name": "ReentrancyGuardReentrantCall",
      "type": "error"
    },
    {
      "anonymous": false,
      "inputs": [
        {
          "indexed": false,
          "internalType": "uint256",
          "name": "offset",
          "type": "uint256"
        },
        {
          "indexed": false,
          "internalType": "bytes",
          "name": "msg",
          "type": "bytes"
        }
      ],
      "name": "BatchMatchInnerError",
      "type": "event"
    },
    {
      "anonymous": false,
      "inputs": [],
      "name": "EIP712DomainChanged",
      "type": "event"
    },
    {
      "anonymous": false,
      "inputs": [
        {
          "indexed": false,
          "internalType": "uint64",
          "name": "version",
          "type": "uint64"
        }
      ],
      "name": "Initialized",
      "type": "event"
    },
    {
      "anonymous": false,
      "inputs": [
        {
          "indexed": true,
          "internalType": "OrderKey",
          "name": "orderKey",
          "type": "bytes32"
        },
        {
          "indexed": true,
          "internalType": "address",
          "name": "maker",
          "type": "address"
        }
      ],
      "name": "LogCancel",
      "type": "event"
    },
    {
      "anonymous": false,
      "inputs": [
        {
          "indexed": false,
          "internalType": "OrderKey",
          "name": "orderKey",
          "type": "bytes32"
        },
        {
          "indexed": true,
          "internalType": "enum LibOrder.Side",
          "name": "side",
          "type": "uint8"
        },
        {
          "indexed": true,
          "internalType": "enum LibOrder.SaleKind",
          "name": "saleKind",
          "type": "uint8"
        },
        {
          "indexed": true,
          "internalType": "address",
          "name": "maker",
          "type": "address"
        },
        {
          "components": [
            {
              "internalType": "uint256",
              "name": "tokenId",
              "type": "uint256"
            },
            {
              "internalType": "address",
              "name": "collection",
              "type": "address"
            },
            {
              "internalType": "uint96",
              "name": "amount",
              "type": "uint96"
            }
          ],
          "indexed": false,
          "internalType": "struct LibOrder.Asset",
          "name": "nft",
          "type": "tuple"
        },
        {
          "indexed": false,
          "internalType": "Price",
          "name": "price",
          "type": "uint128"
        },
        {
          "indexed": false,
          "internalType": "uint64",
          "name": "expiry",
          "type": "uint64"
        },
        {
          "indexed": false,
          "internalType": "uint64",
          "name": "salt",
          "type": "uint64"
        }
      ],
      "name": "LogMake",
      "type": "event"
    },
    {
      "anonymous": false,
      "inputs": [
        {
          "indexed": true,
          "internalType": "OrderKey",
          "name": "makeOrderKey",
          "type": "bytes32"
        },
        {
          "indexed": true,
          "internalType": "OrderKey",
          "name": "takeOrderKey",
          "type": "bytes32"
        },
        {
          "components": [
            {
              "internalType": "enum LibOrder.Side",
              "name": "side",
              "type": "uint8"
            },
            {
              "internalType": "enum LibOrder.SaleKind",
              "name": "saleKind",
              "type": "uint8"
            },
            {
              "internalType": "address",
              "name": "maker",
              "type": "address"
            },
            {
              "components": [
                {
                  "internalType": "uint256",
                  "name": "tokenId",
                  "type": "uint256"
                },
                {
                  "internalType": "address",
                  "name": "collection",
                  "type": "address"
                },
                {
                  "internalType": "uint96",
                  "name": "amount",
                  "type": "uint96"
                }
              ],
              "internalType": "struct LibOrder.Asset",
              "name": "nft",
              "type": "tuple"
            },
            {
              "internalType": "Price",
              "name": "price",
              "type": "uint128"
            },
            {
              "internalType": "uint64",
              "name": "expiry",
              "type": "uint64"
            },
            {
              "internalType": "uint64",
              "name": "salt",
              "type": "uint64"
            }
          ],
          "indexed": false,
          "internalType": "struct LibOrder.Order",
          "name": "makeOrder",
          "type": "tuple"
        },
        {
          "components": [
            {
              "internalType": "enum LibOrder.Side",
              "name": "side",
              "type": "uint8"
            },
            {
              "internalType": "enum LibOrder.SaleKind",
              "name": "saleKind",
              "type": "uint8"
            },
            {
              "internalType": "address",
              "name": "maker",
              "type": "address"
            },
            {
              "components": [
                {
                  "internalType": "uint256",
                  "name": "tokenId",
                  "type": "uint256"
                },
                {
                  "internalType": "address",
                  "name": "collection",
                  "type": "address"
                },
                {
                  "internalType": "uint96",
                  "name": "amount",
                  "type": "uint96"
                }
              ],
              "internalType": "struct LibOrder.Asset",
              "name": "nft",
              "type": "tuple"
            },
            {
              "internalType": "Price",
              "name": "price",
              "type": "uint128"
            },
            {
              "internalType": "uint64",
              "name": "expiry",
              "type": "uint64"
            },
            {
              "internalType": "uint64",
              "name": "salt",
              "type": "uint64"
            }
          ],
          "indexed": false,
          "internalType": "struct LibOrder.Order",
          "name": "takeOrder",
          "type": "tuple"
        },
        {
          "indexed": false,
          "internalType": "uint128",
          "name": "fillPrice",
          "type": "uint128"
        }
      ],
      "name": "LogMatch",
      "type": "event"
    },
    {
      "anonymous": false,
      "inputs": [
        {
          "indexed": false,
          "internalType": "OrderKey",
          "name": "orderKey",
          "type": "bytes32"
        },
        {
          "indexed": false,
          "internalType": "uint64",
          "name": "salt",
          "type": "uint64"
        }
      ],
      "name": "LogSkipOrder",
      "type": "event"
    },
    {
      "anonymous": false,
      "inputs": [
        {
          "indexed": true,
          "internalType": "uint128",
          "name": "newProtocolShare",
          "type": "uint128"
        }
      ],
      "name": "LogUpdatedProtocolShare",
      "type": "event"
    },
    {
      "anonymous": false,
      "inputs": [
        {
          "indexed": false,
          "internalType": "address",
          "name": "recipient",
          "type": "address"
        },
        {
          "indexed": false,
          "internalType": "uint256",
          "name": "amount",
          "type": "uint256"
        }
      ],
      "name": "LogWithdrawETH",
      "type": "event"
    },
    {
      "anonymous": false,
      "inputs": [
        {
          "indexed": false,
          "internalType": "uint256",
          "name": "offset",
          "type": "uint256"
        },
        {
          "indexed": false,
          "internalType": "bytes",
          "name": "msg",
          "type": "bytes"
        }
      ],
      "name": "MulticallInnerError",
      "type": "event"
    },
    {
      "anonymous": false,
      "inputs": [
        {
          "indexed": true,
          "internalType": "address",
          "name": "previousOwner",
          "type": "address"
        },
        {
          "indexed": true,
          "internalType": "address",
          "name": "newOwner",
          "type": "address"
        }
      ],
      "name": "OwnershipTransferred",
      "type": "event"
    },
    {
      "anonymous": false,
      "inputs": [
        {
          "indexed": false,
          "internalType": "address",
          "name": "account",
          "type": "address"
        }
      ],
      "name": "Paused",
      "type": "event"
    },
    {
      "anonymous": false,
      "inputs": [
        {
          "indexed": false,
          "internalType": "address",
          "name": "account",
          "type": "address"
        }
      ],
      "name": "Unpaused",
      "type": "event"
    },
    {
      "inputs": [
        {
          "internalType": "OrderKey[]",
          "name": "orderKeys",
          "type": "bytes32[]"
        }
      ],
      "name": "cancelOrders",
      "outputs": [
        {
          "internalType": "bool[]",
          "name": "successes",
          "type": "bool[]"
        }
      ],
      "stateMutability": "nonpayable",
      "type": "function"
    },
    {
      "inputs": [
        {
          "components": [
            {
              "internalType": "OrderKey",
              "name": "oldOrderKey",
              "type": "bytes32"
            },
            {
              "components": [
                {
                  "internalType": "enum LibOrder.Side",
                  "name": "side",
                  "type": "uint8"
                },
                {
                  "internalType": "enum LibOrder.SaleKind",
                  "name": "saleKind",
                  "type": "uint8"
                },
                {
                  "internalType": "address",
                  "name": "maker",
                  "type": "address"
                },
                {
                  "components": [
                    {
                      "internalType": "uint256",
                      "name": "tokenId",
                      "type": "uint256"
                    },
                    {
                      "internalType": "address",
                      "name": "collection",
                      "type": "address"
                    },
                    {
                      "internalType": "uint96",
                      "name": "amount",
                      "type": "uint96"
                    }
                  ],
                  "internalType": "struct LibOrder.Asset",
                  "name": "nft",
                  "type": "tuple"
                },
                {
                  "internalType": "Price",
                  "name": "price",
                  "type": "uint128"
                },
                {
                  "internalType": "uint64",
                  "name": "expiry",
                  "type": "uint64"
                },
                {
                  "internalType": "uint64",
                  "name": "salt",
                  "type": "uint64"
                }
              ],
              "internalType": "struct LibOrder.Order",
              "name": "newOrder",
              "type": "tuple"
            }
          ],
          "internalType": "struct LibOrder.EditDetail[]",
          "name": "editDetails",
          "type": "tuple[]"
        }
      ],
      "name": "editOrders",
      "outputs": [
        {
          "internalType": "OrderKey[]",
          "name": "newOrderKeys",
          "type": "bytes32[]"
        }
      ],
      "stateMutability": "payable",
      "type": "function"
    },
    {
      "inputs": [],
      "name": "eip712Domain",
      "outputs": [
        {
          "internalType": "bytes1",
          "name": "fields",
          "type": "bytes1"
        },
        {
          "internalType": "string",
          "name": "name",
          "type": "string"
        },
        {
          "internalType": "string",
          "name": "version",
          "type": "string"
        },
        {
          "internalType": "uint256",
          "name": "chainId",
          "type": "uint256"
        },
        {
          "internalType": "address",
          "name": "verifyingContract",
          "type": "address"
        },
        {
          "internalType": "bytes32",
          "name": "salt",
          "type": "bytes32"
        },
        {
          "internalType": "uint256[]",
          "name": "extensions",
          "type": "uint256[]"
        }
      ],
      "stateMutability": "view",
      "type": "function"
    },
    {
      "inputs": [
        {
          "internalType": "OrderKey",
          "name": "",
          "type": "bytes32"
        }
      ],
      "name": "filledAmount",
      "outputs": [
        {
          "internalType": "uint256",
          "name": "",
          "type": "uint256"
        }
      ],
      "stateMutability": "view",
      "type": "function"
    },
    {
      "inputs": [
        {
          "internalType": "address",
          "name": "collection",
          "type": "address"
        },
        {
          "internalType": "uint256",
          "name": "tokenId",
          "type": "uint256"
        },
        {
          "internalType": "enum LibOrder.Side",
          "name": "side",
          "type": "uint8"
        },
        {
          "internalType": "enum LibOrder.SaleKind",
          "name": "saleKind",
          "type": "uint8"
        }
      ],
      "name": "getBestOrder",
      "outputs": [
        {
          "components": [
            {
              "internalType": "enum LibOrder.Side",
              "name": "side",
              "type": "uint8"
            },
            {
              "internalType": "enum LibOrder.SaleKind",
              "name": "saleKind",
              "type": "uint8"
            },
            {
              "internalType": "address",
              "name": "maker",
              "type": "address"
            },
            {
              "components": [
                {
                  "internalType": "uint256",
                  "name": "tokenId",
                  "type": "uint256"
                },
                {
                  "internalType": "address",
                  "name": "collection",
                  "type": "address"
                },
                {
                  "internalType": "uint96",
                  "name": "amount",
                  "type": "uint96"
                }
              ],
              "internalType": "struct LibOrder.Asset",
              "name": "nft",
              "type": "tuple"
            },
            {
              "internalType": "Price",
              "name": "price",
              "type": "uint128"
            },
            {
              "internalType": "uint64",
              "name": "expiry",
              "type": "uint64"
            },
            {
              "internalType": "uint64",
              "name": "salt",
              "type": "uint64"
            }
          ],
          "internalType": "struct LibOrder.Order",
          "name": "orderResult",
          "type": "tuple"
        }
      ],
      "stateMutability": "view",
      "type": "function"
    },
    {
      "inputs": [
        {
          "internalType": "address",
          "name": "collection",
          "type": "address"
        },
        {
          "internalType": "enum LibOrder.Side",
          "name": "side",
          "type": "uint8"
        }
      ],
      "name": "getBestPrice",
      "outputs": [
        {
          "internalType": "Price",
          "name": "price",
          "type": "uint128"
        }
      ],
      "stateMutability": "view",
      "type": "function"
    },
    {
      "inputs": [
        {
          "internalType": "address",
          "name": "collection",
          "type": "address"
        },
        {
          "internalType": "enum LibOrder.Side",
          "name": "side",
          "type": "uint8"
        },
        {
          "internalType": "Price",
          "name": "price",
          "type": "uint128"
        }
      ],
      "name": "getNextBestPrice",
      "outputs": [
        {
          "internalType": "Price",
          "name": "nextBestPrice",
          "type": "uint128"
        }
      ],
      "stateMutability": "view",
      "type": "function"
    },
    {
      "inputs": [
        {
          "internalType": "address",
          "name": "collection",
          "type": "address"
        },
        {
          "internalType": "uint256",
          "name": "tokenId",
          "type": "uint256"
        },
        {
          "internalType": "enum LibOrder.Side",
          "name": "side",
          "type": "uint8"
        },
        {
          "internalType": "enum LibOrder.SaleKind",
          "name": "saleKind",
          "type": "uint8"
        },
        {
          "internalType": "uint256",
          "name": "count",
          "type": "uint256"
        },
        {
          "internalType": "Price",
          "name": "price",
          "type": "uint128"
        },
        {
          "internalType": "OrderKey",
          "name": "firstOrderKey",
          "type": "bytes32"
        }
      ],
      "name": "getOrders",
      "outputs": [
        {
          "components": [
            {
              "internalType": "enum LibOrder.Side",
              "name": "side",
              "type": "uint8"
            },
            {
              "internalType": "enum LibOrder.SaleKind",
              "name": "saleKind",
              "type": "uint8"
            },
            {
              "internalType": "address",
              "name": "maker",
              "type": "address"
            },
            {
              "components": [
                {
                  "internalType": "uint256",
                  "name": "tokenId",
                  "type": "uint256"
                },
                {
                  "internalType": "address",
                  "name": "collection",
                  "type": "address"
                },
                {
                  "internalType": "uint96",
                  "name": "amount",
                  "type": "uint96"
                }
              ],
              "internalType": "struct LibOrder.Asset",
              "name": "nft",
              "type": "tuple"
            },
            {
              "internalType": "Price",
              "name": "price",
              "type": "uint128"
            },
            {
              "internalType": "uint64",
              "name": "expiry",
              "type": "uint64"
            },
            {
              "internalType": "uint64",
              "name": "salt",
              "type": "uint64"
            }
          ],
          "internalType": "struct LibOrder.Order[]",
          "name": "resultOrders",
          "type": "tuple[]"
        },
        {
          "internalType": "OrderKey",
          "name": "nextOrderKey",
          "type": "bytes32"
        }
      ],
      "stateMutability": "view",
      "type": "function"
    },
    {
      "inputs": [
        {
          "internalType": "uint128",
          "name": "newProtocolShare",
          "type": "uint128"
        },
        {
          "internalType": "address",
          "name": "newVault",
          "type": "address"
        },
        {
          "internalType": "string",
          "name": "EIP712Name",
          "type": "string"
        },
        {
          "internalType": "string",
          "name": "EIP712Version",
          "type": "string"
        }
      ],
      "name": "initialize",
      "outputs": [],
      "stateMutability": "nonpayable",
      "type": "function"
    },
    {
      "inputs": [
        {
          "components": [
            {
              "internalType": "enum LibOrder.Side",
              "name": "side",
              "type": "uint8"
            },
            {
              "internalType": "enum LibOrder.SaleKind",
              "name": "saleKind",
              "type": "uint8"
            },
            {
              "internalType": "address",
              "name": "maker",
              "type": "address"
            },
            {
              "components": [
                {
                  "internalType": "uint256",
                  "name": "tokenId",
                  "type": "uint256"
                },
                {
                  "internalType": "address",
                  "name": "collection",
                  "type": "address"
                },
                {
                  "internalType": "uint96",
                  "name": "amount",
                  "type": "uint96"
                }
              ],
              "internalType": "struct LibOrder.Asset",
              "name": "nft",
              "type": "tuple"
            },
            {
              "internalType": "Price",
              "name": "price",
              "type": "uint128"
            },
            {
              "internalType": "uint64",
              "name": "expiry",
              "type": "uint64"
            },
            {
              "internalType": "uint64",
              "name": "salt",
              "type": "uint64"
            }
          ],
          "internalType": "struct LibOrder.Order[]",
          "name": "newOrders",
          "type": "tuple[]"
        }
      ],
      "name": "makeOrders",
      "outputs": [
        {
          "internalType": "OrderKey[]",
          "name": "newOrderKeys",
          "type": "bytes32[]"
        }
      ],
      "stateMutability": "payable",
      "type": "function"
    },
    {
      "inputs": [
        {
          "components": [
            {
              "internalType": "enum LibOrder.Side",
              "name": "side",
              "type": "uint8"
            },
            {
              "internalType": "enum LibOrder.SaleKind",
              "name": "saleKind",
              "type": "uint8"
            },
            {
              "internalType": "address",
              "name": "maker",
              "type": "address"
            },
            {
              "components": [
                {
                  "internalType": "uint256",
                  "name": "tokenId",
                  "type": "uint256"
                },
                {
                  "internalType": "address",
                  "name": "collection",
                  "type": "address"
                },
                {
                  "internalType": "uint96",
                  "name": "amount",
                  "type": "uint96"
                }
              ],
              "internalType": "struct LibOrder.Asset",
              "name": "nft",
              "type": "tuple"
            },
            {
              "internalType": "Price",
              "name": "price",
              "type": "uint128"
            },
            {
              "internalType": "uint64",
              "name": "expiry",
              "type": "uint64"
            },
            {
              "internalType": "uint64",
              "name": "salt",
              "type": "uint64"
            }
          ],
          "internalType": "struct LibOrder.Order",
          "name": "sellOrder",
          "type": "tuple"
        },
        {
          "components": [
            {
              "internalType": "enum LibOrder.Side",
              "name": "side",
              "type": "uint8"
            },
            {
              "internalType": "enum LibOrder.SaleKind",
              "name": "saleKind",
              "type": "uint8"
            },
            {
              "internalType": "address",
              "name": "maker",
              "type": "address"
            },
            {
              "components": [
                {
                  "internalType": "uint256",
                  "name": "tokenId",
                  "type": "uint256"
                },
                {
                  "internalType": "address",
                  "name": "collection",
                  "type": "address"
                },
                {
                  "internalType": "uint96",
                  "name": "amount",
                  "type": "uint96"
                }
              ],
              "internalType": "struct LibOrder.Asset",
              "name": "nft",
              "type": "tuple"
            },
            {
              "internalType": "Price",
              "name": "price",
              "type": "uint128"
            },
            {
              "internalType": "uint64",
              "name": "expiry",
              "type": "uint64"
            },
            {
              "internalType": "uint64",
              "name": "salt",
              "type": "uint64"
            }
          ],
          "internalType": "struct LibOrder.Order",
          "name": "buyOrder",
          "type": "tuple"
        }
      ],
      "name": "matchOrder",
      "outputs": [],
      "stateMutability": "payable",
      "type": "function"
    },
    {
      "inputs": [
        {
          "components": [
            {
              "internalType": "enum LibOrder.Side",
              "name": "side",
              "type": "uint8"
            },
            {
              "internalType": "enum LibOrder.SaleKind",
              "name": "saleKind",
              "type": "uint8"
            },
            {
              "internalType": "address",
              "name": "maker",
              "type": "address"
            },
            {
              "components": [
                {
                  "internalType": "uint256",
                  "name": "tokenId",
                  "type": "uint256"
                },
                {
                  "internalType": "address",
                  "name": "collection",
                  "type": "address"
                },
                {
                  "internalType": "uint96",
                  "name": "amount",
                  "type": "uint96"
                }
              ],
              "internalType": "struct LibOrder.Asset",
              "name": "nft",
              "type": "tuple"
            },
            {
              "internalType": "Price",
              "name": "price",
              "type": "uint128"
            },
            {
              "internalType": "uint64",
              "name": "expiry",
              "type": "uint64"
            },
            {
              "internalType": "uint64",
              "name": "salt",
              "type": "uint64"
            }
          ],
          "internalType": "struct LibOrder.Order",
          "name": "sellOrder",
          "type": "tuple"
        },
        {
          "components": [
            {
              "internalType": "enum LibOrder.Side",
              "name": "side",
              "type": "uint8"
            },
            {
              "internalType": "enum LibOrder.SaleKind",
              "name": "saleKind",
              "type": "uint8"
            },
            {
              "internalType": "address",
              "name": "maker",
              "type": "address"
            },
            {
              "components": [
                {
                  "internalType": "uint256",
                  "name": "tokenId",
                  "type": "uint256"
                },
                {
                  "internalType": "address",
                  "name": "collection",
                  "type": "address"
                },
                {
                  "internalType": "uint96",
                  "name": "amount",
                  "type": "uint96"
                }
              ],
              "internalType": "struct LibOrder.Asset",
              "name": "nft",
              "type": "tuple"
            },
            {
              "internalType": "Price",
              "name": "price",
              "type": "uint128"
            },
            {
              "internalType": "uint64",
              "name": "expiry",
              "type": "uint64"
            },
            {
              "internalType": "uint64",
              "name": "salt",
              "type": "uint64"
            }
          ],
          "internalType": "struct LibOrder.Order",
          "name": "buyOrder",
          "type": "tuple"
        },
        {
          "internalType": "uint256",
          "name": "msgValue",
          "type": "uint256"
        }
      ],
      "name": "matchOrderWithoutPayback",
      "outputs": [
        {
          "internalType": "uint128",
          "name": "costValue",
          "type": "uint128"
        }
      ],
      "stateMutability": "payable",
      "type": "function"
    },
    {
      "inputs": [
        {
          "components": [
            {
              "components": [
                {
                  "internalType": "enum LibOrder.Side",
                  "name": "side",
                  "type": "uint8"
                },
                {
                  "internalType": "enum LibOrder.SaleKind",
                  "name": "saleKind",
                  "type": "uint8"
                },
                {
                  "internalType": "address",
                  "name": "maker",
                  "type": "address"
                },
                {
                  "components": [
                    {
                      "internalType": "uint256",
                      "name": "tokenId",
                      "type": "uint256"
                    },
                    {
                      "internalType": "address",
                      "name": "collection",
                      "type": "address"
                    },
                    {
                      "internalType": "uint96",
                      "name": "amount",
                      "type": "uint96"
                    }
                  ],
                  "internalType": "struct LibOrder.Asset",
                  "name": "nft",
                  "type": "tuple"
                },
                {
                  "internalType": "Price",
                  "name": "price",
                  "type": "uint128"
                },
                {
                  "internalType": "uint64",
                  "name": "expiry",
                  "type": "uint64"
                },
                {
                  "internalType": "uint64",
                  "name": "salt",
                  "type": "uint64"
                }
              ],
              "internalType": "struct LibOrder.Order",
              "name": "sellOrder",
              "type": "tuple"
            },
            {
              "components": [
                {
                  "internalType": "enum LibOrder.Side",
                  "name": "side",
                  "type": "uint8"
                },
                {
                  "internalType": "enum LibOrder.SaleKind",
                  "name": "saleKind",
                  "type": "uint8"
                },
                {
                  "internalType": "address",
                  "name": "maker",
                  "type": "address"
                },
                {
                  "components": [
                    {
                      "internalType": "uint256",
                      "name": "tokenId",
                      "type": "uint256"
                    },
                    {
                      "internalType": "address",
                      "name": "collection",
                      "type": "address"
                    },
                    {
                      "internalType": "uint96",
                      "name": "amount",
                      "type": "uint96"
                    }
                  ],
                  "internalType": "struct LibOrder.Asset",
                  "name": "nft",
                  "type": "tuple"
                },
                {
                  "internalType": "Price",
                  "name": "price",
                  "type": "uint128"
                },
                {
                  "internalType": "uint64",
                  "name": "expiry",
                  "type": "uint64"
                },
                {
                  "internalType": "uint64",
                  "name": "salt",
                  "type": "uint64"
                }
              ],
              "internalType": "struct LibOrder.Order",
              "name": "buyOrder",
              "type": "tuple"
            }
          ],
          "internalType": "struct LibOrder.MatchDetail[]",
          "name": "matchDetails",
          "type": "tuple[]"
        }
      ],
      "name": "matchOrders",
      "outputs": [
        {
          "internalType": "bool[]",
          "name": "successes",
          "type": "bool[]"
        }
      ],
      "stateMutability": "payable",
      "type": "function"
    },
    {
      "inputs": [
        {
          "internalType": "bytes[]",
          "name": "data",
          "type": "bytes[]"
        },
        {
          "internalType": "bool",
          "name": "revertOnFail",
          "type": "bool"
        }
      ],
      "name": "multicall",
      "outputs": [
        {
          "internalType": "bool[]",
          "name": "successes",
          "type": "bool[]"
        },
        {
          "internalType": "bytes[]",
          "name": "results",
          "type": "bytes[]"
        }
      ],
      "stateMutability": "payable",
      "type": "function"
    },
    {
      "inputs": [
        {
          "internalType": "address",
          "name": "",
          "type": "address"
        },
        {
          "internalType": "enum LibOrder.Side",
          "name": "",
          "type": "uint8"
        },
        {
          "internalType": "Price",
          "name": "",
          "type": "uint128"
        }
      ],
      "name": "orderQueues",
      "outputs": [
        {
          "internalType": "OrderKey",
          "name": "head",
          "type": "bytes32"
        },
        {
          "internalType": "OrderKey",
          "name": "tail",
          "type": "bytes32"
        }
      ],
      "stateMutability": "view",
      "type": "function"
    },
    {
      "inputs": [
        {
          "internalType": "OrderKey",
          "name": "",
          "type": "bytes32"
        }
      ],
      "name": "orders",
      "outputs": [
        {
          "components": [
            {
              "internalType": "enum LibOrder.Side",
              "name": "side",
              "type": "uint8"
            },
            {
              "internalType": "enum LibOrder.SaleKind",
              "name": "saleKind",
              "type": "uint8"
            },
            {
              "internalType": "address",
              "name": "maker",
              "type": "address"
            },
            {
              "components": [
                {
                  "internalType": "uint256",
                  "name": "tokenId",
                  "type": "uint256"
                },
                {
                  "internalType": "address",
                  "name": "collection",
                  "type": "address"
                },
                {
                  "internalType": "uint96",
                  "name": "amount",
                  "type": "uint96"
                }
              ],
              "internalType": "struct LibOrder.Asset",
              "name": "nft",
              "type": "tuple"
            },
            {
              "internalType": "Price",
              "name": "price",
              "type": "uint128"
            },
            {
              "internalType": "uint64",
              "name": "expiry",
              "type": "uint64"
            },
            {
              "internalType": "uint64",
              "name": "salt",
              "type": "uint64"
            }
          ],
          "internalType": "struct LibOrder.Order",
          "name": "order",
          "type": "tuple"
        },
        {
          "internalType": "OrderKey",
          "name": "next",
          "type": "bytes32"
        }
      ],
      "stateMutability": "view",
      "type": "function"
    },
    {
      "inputs": [],
      "name": "owner",
      "outputs": [
        {
          "internalType": "address",
          "name": "",
          "type": "address"
        }
      ],
      "stateMutability": "view",
      "type": "function"
    },
    {
      "inputs": [],
      "name": "pause",
      "outputs": [],
      "stateMutability": "nonpayable",
      "type": "function"
    },
    {
      "inputs": [],
      "name": "paused",
      "outputs": [
        {
          "internalType": "bool",
          "name": "",
          "type": "bool"
        }
      ],
      "stateMutability": "view",
      "type": "function"
    },
    {
      "inputs": [
        {
          "internalType": "address",
          "name": "",
          "type": "address"
        },
        {
          "internalType": "enum LibOrder.Side",
          "name": "",
          "type": "uint8"
        }
      ],
      "name": "priceTrees",
      "outputs": [
        {
          "internalType": "Price",
          "name": "root",
          "type": "uint128"
        }
      ],
      "stateMutability": "view",
      "type": "function"
    },
    {
      "inputs": [],
      "name": "protocolShare",
      "outputs": [
        {
          "internalType": "uint128",
          "name": "",
          "type": "uint128"
        }
      ],
      "stateMutability": "view",
      "type": "function"
    },
    {
      "inputs": [],
      "name": "renounceOwnership",
      "outputs": [],
      "stateMutability": "nonpayable",
      "type": "function"
    },
    {
      "inputs": [
        {
          "internalType": "uint128",
          "name": "newProtocolShare",
          "type": "uint128"
        }
      ],
      "name": "setProtocolShare",
      "outputs": [],
      "stateMutability": "nonpayable",
      "type": "function"
    },
    {
      "inputs": [
        {
          "internalType": "address",
          "name": "newVault",
          "type": "address"
        }
      ],
      "name": "setVault",
      "outputs": [],
      "stateMutability": "nonpayable",
      "type": "function"
    },
    {
      "inputs": [
        {
          "internalType": "address",
          "name": "newOwner",
          "type": "address"
        }
      ],
      "name": "transferOwnership",
      "outputs": [],
      "stateMutability": "nonpayable",
      "type": "function"
    },
    {
      "inputs": [],
      "name": "unpause",
      "outputs": [],
      "stateMutability": "nonpayable",
      "type": "function"
    },
    {
      "inputs": [
        {
          "internalType": "address",
          "name": "recipient",
          "type": "address"
        },
        {
          "internalType": "uint256",
          "name": "amount",
          "type": "uint256"
        }
      ],
      "name": "withdrawETH",
      "outputs": [],
      "stateMutability": "nonpayable",
      "type": "function"
    },
    {
      "stateMutability": "payable",
      "type": "receive"
    }
  ],
  "bytecode": "0x60a080604052346100245730608052615e2f90816200002a823960805181610a870152f35b600080fdfe6080604052600436101561001b575b361561001957600080fd5b005b60003560e01c80630b20b7bc146101cb5780631103f315146101c65780631e9701d4146101c157806321c77c96146101bc578063307725d9146101b7578063366c39ed146101b25780633f4ba83a146101ad578063436a5ed6146101a85780634782f779146101a35780635c975abb1461019e5780635d52957e146101995780635dcc7f9c146101945780636817031b1461018f578063715018a61461018a5780637d910dac14610185578063813e7c2a146101805780638456cb591461017b57806384b0196e14610176578063877edbff14610171578063882849c91461016c5780638da5cb5b146101675780639c3f1e90146101625780639e09126c1461015d578063e471ba4614610158578063e8f27e9514610153578063f2fde38b1461014e5763fe971c980361000e57611d3f565b611d12565b611c04565b611bba565b611b8a565b611b43565b611a5a565b6119dc565b6116b2565b611593565b6114a6565b6113f1565b6113ad565b6112ce565b61124c565b611015565b610dd1565b610c58565b610bd2565b610bb9565b610ad7565b610a5d565b6108d3565b6104da565b61034c565b610207565b346101f75760203660031901126101f75760043560005260686020526020604060002054604051908152f35b600080fd5b60009103126101f757565b346101f75760003660031901126101f7576035546040516001600160801b039091168152602090f35b9181601f840112156101f7578235916001600160401b0383116101f7576020808501948460051b0101116101f757565b90815180825260208080930193019160005b828110610280575050505090565b8351151585529381019392810192600101610272565b919082519283825260005b8481106102c2575050826000602080949584010152601f8019910116010190565b6020818301810151848301820152016102a1565b906102e990604083526040830190610260565b90602090818184039101528251908183528083019281808460051b8301019501936000915b84831061031e5750505050505090565b909192939495848061033c600193601f198682030187528a51610296565b980193019301919493929061030e565b6040806003193601126101f75760049081356001600160401b0381116101f7576103799036908401610230565b919060243580151581036101f75761038f612379565b61039884612271565b936103a281612599565b95600091825b8181106103c1578651806103bd8b8b836102d6565b0390f35b6103cc8183886125e3565b906000858310156104be575b806103ed6103e86103f293613ba3565b612624565b613c17565b610499575b600091829161040a8b51809381936126af565b0390305af4610417612533565b9061042d81610426858d61233f565b9015159052565b81610438848d61233f565b52610443838c61233f565b5015610459575b50610454906122b9565b6103a8565b857f91837fc535a3750e88fdd9cb575731d49f1cc5c44d57bd4501659912cb2d5941895180610489858783612563565b0390a11561044a57602081519101fd5b946000916104a783926122b9565b966104b5600189111561266b565b915091506103f7565b5080356103d8565b9060206104d7928181520190610260565b90565b346101f7576020806003193601126101f757600480356001600160401b0381116101f75761050b9036908301610230565b9091610515612379565b61051d6123a4565b61052682612271565b9260005b838110610549576103bd8561053d61225d565b604051918291826104c6565b80869160051b83013560009061057161056c826000526000602052604060002090565b611a90565b604081810180516001600160a01b0395919493919290861633148061085a575b156108135761059f82614d1a565b6105a88361420b565b5082516105b481610f40565b6105bd81610f40565b6106d357609b546105e4906105d8906001600160a01b031681565b6001600160a01b031690565b865190929061060c906060906001600160a01b03169501519a8b01516001600160a01b031690565b995190833b156106cf5761063686928e92519c8d9788968795635243975360e01b875286016127ba565b03925af19283156106ca576106ac956106a7946106b1575b505b610667826000526068602052600019604060002055565b9151600192166001600160a01b0316907f0ac8bb53fac566d7afc05d8b4df11d7690a7b27bdc40b54e4060f9b21fb849bd600080a35b610426838961233f565b6122b9565b61052a565b806106be6106c492610c9e565b806101fc565b3861064e565b6127ae565b8580fd5b91909395949750600181516106e781610f40565b6106f081610f40565b14610708575b50505050926106a7916106ac94610650565b6060810151840151939794959361078c9061074a906001600160601b031661073a876000526068602052604060002090565b54906001600160601b031661236c565b61078761077b61077b608061076c6105d86105d8609b5460018060a01b031690565b9601516001600160801b031690565b6001600160801b031690565b612b74565b85519092906001600160a01b031698823b1561080f5751630160928b60e31b8152808c0191825260208201939093526001600160a01b039098166040890152909687919082908490829060600103925af19283156106ca576106ac956106a7946107fc575b8193968395506106f6565b806106be61080992610c9e565b386107f1565b8480fd5b9193506106ac96506106a794509161085261084760c0600080516020615d5a8339815191529501516001600160401b031690565b925192839283612795565b0390a161069d565b5061086f846000526068602052604060002090565b546060830151820151610892906001600160601b03165b6001600160601b031690565b11610591565b6020908160408183019282815285518094520193019160005b8281106108bf575050505090565b8351855293810193928101926001016108b1565b60203660031901126101f7576001600160401b036004358181116101f757366023820112156101f75780600401359182116101f75760248101906024369161012085020101116101f757610925612379565b61092d6123a4565b61093682612271565b90600090815b848110610987576103bd846001600160801b03851634811061096e575b5061096261225d565b60405191829182610898565b61097b610981913461236c565b33614e0b565b82610959565b6000600161099e6109998489876122de565b6122f4565b6109a781610f40565b146109f6575b6109c1816109bc8489876122de565b612824565b806109cc848861233f565b526109e1575b506109dc906122b9565b61093c565b6109ef906109dc9294612353565b92906109d2565b50610a32610a1361077b60c0610a0d858a886122de565b016122fe565b610a2c61088660a0610a26868b896122de565b01612319565b90612323565b6109ad565b6101209060031901126101f757600490565b610120906101231901126101f75761012490565b6102603660031901126101f757610a7336610a37565b610a7c36610a49565b610a84612379565b307f00000000000000000000000000000000000000000000000000000000000000006001600160a01b0316146101f757602091610ac59161024435916132d5565b6040516001600160801b039091168152f35b346101f75760003660031901126101f757610af0611ef3565b600080516020615d9a833981519152805460ff811615610b3c5760ff191690557f5db9ee0a495bf2e6ff9c91a7834c1ba4fdd244a5e8aa4e537bd38aeae4b073aa6020604051338152a1005b604051638dfc202b60e01b8152600490fd5b6001600160a01b038116036101f757565b600211156101f757565b6001600160801b038116036101f757565b3590610b8582610b69565b565b60609060031901126101f757600435610b9f81610b4e565b90602435610bac81610b5f565b906044356104d781610b69565b346101f7576020610ac5610bcc36610b87565b91613cd3565b346101f75760403660031901126101f7577fab0f46966ebb6f17d26b8f6add4624e39fcfdeaccfeaba589d57f81cb5cb66666040600435610c1281610b4e565b602435610c1d6123a4565b610c25611ef3565b610c2f8183614e0b565b82516001600160a01b0390921682526020820152a16001600080516020615dba83398151915255005b346101f75760003660031901126101f757602060ff600080516020615d9a83398151915254166040519015158152f35b634e487b7160e01b600052604160045260246000fd5b6001600160401b038111610cb157604052565b610c88565b606081019081106001600160401b03821117610cb157604052565b60e081019081106001600160401b03821117610cb157604052565b604081019081106001600160401b03821117610cb157604052565b60a081019081106001600160401b03821117610cb157604052565b90601f801991011681019081106001600160401b03821117610cb157604052565b60405190610b8582610cec565b60405190608082018281106001600160401b03821117610cb157604052565b6001600160401b038111610cb157601f01601f191660200190565b81601f820112156101f757803590610da182610d6f565b92610daf6040519485610d22565b828452602083830101116101f757816000926020809301838601378301015290565b346101f75760803660031901126101f757600435610dee81610b69565b60243590610dfb82610b4e565b6001600160401b03916044358381116101f757610e1c903690600401610d8a565b6064358481116101f757610e34903690600401610d8a565b91600080516020615dda833981519152549460ff8660401c1615951680159081610f38575b6001149081610f2e575b159081610f25575b50610f1357600080516020615dda833981519152805467ffffffffffffffff19166001179055610e9f9385610eee5761215b565b610ea557005b600080516020615dda833981519152805460ff60401b19169055604051600181527fc7f505b2f371ae2175ee4913f4499e1f2633a7b5936321eed1cdaeb6115181d290602090a1005b600080516020615dda833981519152805460ff60401b1916600160401b17905561215b565b60405163f92ee8a960e01b8152600490fd5b90501538610e6b565b303b159150610e63565b869150610e59565b60021115610f4a57565b634e487b7160e01b600052602160045260246000fd5b9061010060c0610b85938051610f7581610f40565b84526020810151610f8581610f40565b6020858101919091526040828101516001600160a01b039081168288015260608085015180519189019190915292830151166080808801919091529101516001600160601b031660a08601528101516001600160801b03168285015260a08101516001600160401b031660e085015201516001600160401b0316910152565b61012081019291610b859190610f60565b346101f7576080806003193601126101f7576004359061103482610b4e565b602435916044359061104582610b5f565b6064359261105284610b5f565b61105a614590565b946110658484613c6e565b600190818614905b6001600160801b03811661108a575b604051806103bd8b82611004565b6110ad6110a8826110a38a61109e8b611361565b611395565b611ba3565b614632565b51805b6110e7575b50888501516110ce9061077b906001600160801b031681565b6110e2576110dd908787613cd3565b61106d565b61107c565b611101611106919992996000526000602052604060002090565b6141e6565b61110f88610f40565b828061123a575b6111dc575b61112488610f40565b82806111cb575b611183575b80516001600160401b0361114e60a08301516001600160401b031690565b168015908115611179575b5061116d575060200151805b9891986110b0565b919899505097386110b5565b9050421038611159565b8361118e8251612b6a565b61119781610f40565b14806111ad575b15611130576020015180611165565b50836111bc6020835101612b6a565b6111c581610f40565b1461119e565b506111d582610f40565b811561112b565b836111e78251612b6a565b6111f081610f40565b148061121c575b8061120c575b1561111b576020015180611165565b50606081510151518514156111fd565b508361122b6020835101612b6a565b61123481610f40565b146111f7565b5061124482610f40565b838214611116565b346101f75760203660031901126101f75760043561126981610b4e565b611271611ef3565b6001600160a01b0316801561129657609b80546001600160a01b031916919091179055005b60405162461bcd60e51b815260206004820152601060248201526f48443a207a65726f206164647265737360801b6044820152606490fd5b346101f757600080600319360112611339576112e8611ef3565b600080516020615d1a83398151915280546001600160a01b0319811690915581906001600160a01b03167f8be0079c531659141344cd1fd0a4f28419497f9722a3daafe3b4186f6b6457e08280a380f35b80fd5b60409060031901126101f75760043561135481610b4e565b906024356104d781610b5f565b6001600160a01b0316600090815260026020526040902090565b6001600160a01b0316600090815260016020526040902090565b9061139f81610f40565b600052602052604060002090565b346101f75760206113bd3661133c565b6001600160a01b03909116600090815260018352604090206001600160801b03916113e791611395565b5416604051908152f35b346101f75760203660031901126101f75760043561140e81610b69565b611416611ef3565b6001600160801b03166103e8811161146157603580546001600160801b031916821790557f0b52884d4590055c8791518c34458834f75feed662340ef0b5af2898e7a9be9f600080a2005b60405162461bcd60e51b815260206004820152601d60248201527f504d3a20657863656564206d61782070726f746f636f6c2073686172650000006044820152606490fd5b346101f75760003660031901126101f7576114bf611ef3565b6114c7612379565b600080516020615d9a833981519152600160ff198254161790557f62e78cea01bee320cd4e420270b5ea74000d11b0c9f74754ebdbfc544b05a2586020604051338152a1005b9161154090949194600f60f81b845261153260209660e08887015260e0860190610296565b908482036040860152610296565b92606083015260018060a01b03166080820152600060a082015260c081830391015281808451928381520193019160005b82811061157f575050505090565b835185529381019392810192600101611571565b346101f75760003660031901126101f7577fa16a46d94261c7517cc8ff89f61c0ce93598e3c849801011dee649a6a557d10054158061163b575b156115fe576115da612019565b6115e26120cc565b906103bd6115ee611fb7565b604051938493309146918661150d565b60405162461bcd60e51b81526020600482015260156024820152741152540dcc4c8e88155b9a5b9a5d1a585b1a5e9959605a1b6044820152606490fd5b507fa16a46d94261c7517cc8ff89f61c0ce93598e3c849801011dee649a6a557d10154156115cd565b92919060408401604085528151809152606085019060208093019060005b848282106116935750505050930152565b610120856116a78697600195969751610f60565b019401929101611682565b346101f75760e03660031901126101f7576004356116cf81610b4e565b604435906024356116df83610b5f565b606435926116ec84610b5f565b6084359060a435936116fd85610b69565b60c4359285968495600098611711846145e2565b986001600160801b03978882166119b45750505061172f8585613c6e565b909192965b899760019787891493895b611753575b604051806103bd8f8f83611664565b8181161515806119ab575b156119a6576117776110a8826110a38c61109e8d611361565b518a85611945575b6117a3575b50906117978a9796959493928a8a613cd3565b9091929394959661173f565b809c9b9c15158061193c575b15611934576111016117cb916000526000602052604060002090565b602090818101908151926001600160401b036117f260a0845101516001600160401b031690565b16801515908161192a575b506118f05761180b8d610f40565b8880611919575b6118cf575b6118208d610f40565b88806118bd575b611854575b508e9f508d9e8d9e6118499251611843838361233f565b5261233f565b50519d8b019b61177f565b8d806118608451612b6a565b61186981610f40565b14918261189e575b50508061188e575b611883578f61182c565b50508a9c9b9c61177f565b5060608151015151891415611879565b6118ac919250835101612b6a565b6118b581610f40565b148d38611871565b506118c78b610f40565b8d8b14611827565b8d6118da8351612b6a565b6118e381610f40565b14806118fc575b15611817575b5050508a9c9b9c61177f565b508d61190a82845101612b6a565b61191381610f40565b146118ea565b506119238b610f40565b8a15611812565b90504211386117fd565b9b9a9b611784565b50838d106117af565b94855b611956575b5060009461177f565b9080959293949515158061199c575b15611991576119836111016020926000526000602052604060002090565b015191949392919085611948565b90949392919461194d565b5081811415611965565b611744565b50828b1061175e565b979197156119c8575b509590919296611734565b6119d59197508686613cd3565b95386119bd565b6102403660031901126101f7576119f236610a37565b611a1f6119fe36610a49565b91611a07612379565b611a0f6123a4565b6001600160801b039234916132d5565b16803411611a3c575b6001600080516020615dba83398151915255005b3403348111611a5557611a4f9033614e0b565b38611a28565b6122a3565b346101f75760003660031901126101f757600080516020615d1a833981519152546040516001600160a01b039091168152602090f35b90610b85604051611aa081610cd1565b60c060038295805460ff8116611ab581610f40565b855260ff8160081c16611ac781610f40565b602086015260101c6001600160a01b039081166040808701919091525190611aee82610cb6565b600183015482526002830154908116602083015260a01c6040820152606085015201546001600160801b0381166080840152608081901c6001600160401b031660a0840152811c6001600160401b0316910152565b346101f75760203660031901126101f757600435600052600060205261014060406000206004611b7282611a90565b910154611b826040518093610f60565b610120820152f35b346101f7576020610ac5611b9d3661133c565b90613c6e565b9060018060801b0316600052602052604060002090565b346101f757611bea6110a3611bce36610b87565b929160018060a01b031660005260026020526040600020611395565b805460019091015460408051928352602083019190915290f35b6020806003193601126101f7576001600160401b03906004358281116101f757366023820112156101f75780600401359283116101f75760248101906024369161014086020101116101f75791611c59612379565b611c616123a4565b611c6a81612271565b9260009283915b838310611cbf578585803411611ca2575b6001600080516020615dba83398151915255604051806103bd8482610898565b340390348211611a5557611cb96103bd9233614e0b565b90611c82565b9091929493611ce6611cd28588856123d4565b3584611cdf878a876123d4565b0190612bb3565b8295919501809211611a5557611d079194611d01828861233f565b526122b9565b919094929394611c71565b346101f75760203660031901126101f757610019600435611d3281610b4e565b611d3a611ef3565b611f2c565b6020806003193601126101f7576001600160401b03906004358281116101f757366023820112156101f75780600401359283116101f75760248082019181369161024087020101116101f757611d93612379565b611d9b6123a4565b611da484612271565b92600094855b818110611de3576103bd866001600160801b038916348110611dd0575b5061053d61225d565b61097b611ddd913461236c565b82611dc7565b611dee8183876123f3565b611e016001600160801b0389163461236c565b906000806040938451611e3c81611e2e8b82019463366c39ed60e01b86528d89610120810191850161250b565b03601f198101835282610d22565b5190305af4611e49612533565b928115611eb25750611e6c91611e6661016092610426878d61233f565b0161257a565b6001600160a01b03163314611e8b575b50611e86906122b9565b611daa565b611e869197611ea5828680611eab95518301019101612584565b90612353565b9690611e7c565b7f050f709fb65709f10a27682788a9d67fe74de81b310b5c34e3d32f0e2c3ac5579250611eeb915092611e869493519182918583612563565b0390a16122b9565b600080516020615d1a833981519152546001600160a01b03163303611f1457565b60405163118cdaa760e01b8152336004820152602490fd5b6001600160a01b03908116908115611f8757600080516020615d1a83398151915280546001600160a01b031981168417909155167f8be0079c531659141344cd1fd0a4f28419497f9722a3daafe3b4186f6b6457e0600080a3565b604051631e4fbdf760e01b815260006004820152602490fd5b6001600160401b038111610cb15760051b60200190565b604051602081018181106001600160401b03821117610cb15760405260008152906000368137565b90600182811c9216801561200f575b6020831014611ff957565b634e487b7160e01b600052602260045260246000fd5b91607f1691611fee565b60405190600082600080516020615cfa8339815191529182549261203c84611fdf565b9081845260019485811690816000146120a95750600114612066575b5050610b8592500383610d22565b9093915060005260209081600020936000915b818310612091575050610b8593508201013880612058565b85548884018501529485019487945091830191612079565b915050610b8594506020925060ff191682840152151560051b8201013880612058565b60405190600082600080516020615d3a833981519152918254926120ef84611fdf565b9081845260019485811690816000146120a95750600114612118575050610b8592500383610d22565b9093915060005260209081600020936000915b818310612143575050610b8593508201013880612058565b8554888401850152948501948794509183019161212b565b9290919261216761222e565b61216f61222e565b61217761222e565b61217f61222e565b61218761222e565b61219033611f2c565b61219861222e565b6121a061222e565b6001600080516020615dba833981519152556121ba61222e565b6121c261222e565b6121ca61222e565b6121d261222e565b6001600160801b0316906103e8821161146157603580546001600160801b03191683179055610b8593612229927f0b52884d4590055c8791518c34458834f75feed662340ef0b5af2898e7a9be9f600080a2614650565b613c41565b60ff600080516020615dda8339815191525460401c161561224b57565b604051631afcd79f60e31b8152600490fd5b6001600080516020615dba83398151915255565b9061227b82611fa0565b6122886040519182610d22565b8281528092612299601f1991611fa0565b0190602036910137565b634e487b7160e01b600052601160045260246000fd5b6000198114611a555760010190565b634e487b7160e01b600052603260045260246000fd5b91908110156122ef57610120020190565b6122c8565b356104d781610b5f565b356104d781610b69565b6001600160601b038116036101f757565b356104d781612308565b6001600160801b039182169082160290811691908203611a5557565b80518210156122ef5760209160051b010190565b6001600160801b039182169082160191908211611a5557565b91908203918211611a5557565b60ff600080516020615d9a833981519152541661239257565b60405163d93c066560e01b8152600490fd5b600080516020615dba83398151915260028154146123c25760029055565b604051633ee5aeb560e01b8152600490fd5b91908110156122ef57610140020190565b9060018201809211611a5557565b91908110156122ef57610240020190565b6040809180358452602081013561241a81610b4e565b6001600160a01b03166020850152013561243381612308565b6001600160601b0316910152565b6001600160401b038116036101f757565b3590610b8582612441565b803561246881610b5f565b61247181610f40565b8252602081013561248181610b5f565b61248a81610f40565b6020830152604081013561249d81610b4e565b6001600160a01b031660408301526124bb6060808401908301612404565b60c08101356124c981610b69565b6001600160801b031660c083015260e08101356124e581612441565b6001600160401b0380911660e08401526101008092013561250581612441565b16910152565b61252f610240929594936125248361026081019861245d565b61012083019061245d565b0152565b3d1561255e573d9061254482610d6f565b916125526040519384610d22565b82523d6000602084013e565b606090565b6040906104d7939281528160208201520190610296565b356104d781610b4e565b908160209103126101f757516104d781610b69565b906125a382611fa0565b6125b06040519182610d22565b82815280926125c1601f1991611fa0565b019060005b8281106125d257505050565b8060606020809385010152016125c6565b91908110156122ef5760051b81013590601e19813603018212156101f75701908135916001600160401b0383116101f75760200182360381136101f7579190565b1561262b57565b60405162461bcd60e51b815260206004820152601860248201527724221d103ab739bab83837b93a32b21039b2b632b1ba37b960411b6044820152606490fd5b1561267257565b60405162461bcd60e51b815260206004820152601560248201527448443a206d756c74692076616c75652063616c6c7360581b6044820152606490fd5b908092918237016000815290565b356104d781612441565b809291039161012083126101f757604051906126e282610cd1565b6060829482356126f181610b5f565b8452602083013561270181610b5f565b6020850152604083013561271481610b4e565b6040850152605f1901126101f75761279061010060c09260405161273781610cb6565b60608201358152608082013561274c81610b4e565b602082015260a082013561275f81612308565b60408201526060860152612774848201610b7a565b608086015261278560e08201612452565b60a086015201612452565b910152565b9081526001600160401b03909116602082015260400190565b6040513d6000823e3d90fd5b9081526001600160a01b03918216602082015291166040820152606081019190915260800190565b93919261280060c0949796929760e087019887526020870190612404565b6001600160801b031660808501526001600160401b0391821660a085015216910152565b909190604081016000806128378361257a565b6001600160a01b0392908316331480612b4a575b80612b2c575b80612aee575b80612ac6575b15612a82575061287561287036866126c7565b614d1a565b9561287f856122f4565b61288881610f40565b6129c8575060016001600160601b036128a360a08701612319565b16036129c157609b546128c0906105d8906001600160a01b031681565b906128ca8461257a565b6128d66080870161257a565b92803b156129bd57606083886129068c604051988997889687956305f91a0f60e41b8752013592600486016127ba565b03925af180156106ca576129aa575b505b61292961292436856126c7565b613fb9565b50600080516020615cda833981519152612942846122f4565b91612958612952602087016122f4565b9461257a565b6129a561296760c088016122fe565b61297360e089016126bd565b6129806101008a016126bd565b9161298a88610f40565b61299389610f40565b6060604051968796169a018c866127e2565b0390a4565b806106be6129b792610c9e565b38612915565b8280fd5b9450505050565b9060016129d4866122f4565b6129dd81610f40565b146129ea575b5050612917565b6001600160601b036129fe60a08701612319565b1615612a7a57609b54612a1b906105d8906001600160a01b031681565b803b15612a76576040516373d1ca7d60e11b8152600481018990526001600160801b039390931660248401819052839160449183915af180156106ca57612a63575b806129e3565b806106be612a7092610c9e565b38612a5d565b5080fd5b955050505050565b9550505050600080516020615d5a83398151915290612ab1610100612aaa61287036856126c7565b92016126bd565b90612ac160405192839283612795565b0390a1565b50612ae7612ad761287036886126c7565b6000526068602052604060002090565b541561285d565b5060e08501612afc816126bd565b426001600160401b0391821611918215612b18575b5050612857565b612b239192506126bd565b16153880612b11565b506001600160401b03612b4261010087016126bd565b161515612851565b506001600160801b03612b6261077b60c088016122fe565b16151561284b565b516104d781610f40565b81810292918115918404141715611a5557565b93909594919260809360a0860197865260208601526040850152606084015260018060a01b0316910152565b91600091600093612bd161056c826000526000602052604060002090565b94602086015190612be182610f40565b6020840191612bef836122f4565b90612bf982610f40565b612c0281610f40565b14801590613140575b8015613110575b80156130dc575b80156130c9575b8015613091575b61305657604080850193612c3a8561257a565b6001600160a01b03939084163314801590613039575b8015612ffb575b8015612fe2575b612fb157612c76826000526068602052604060002090565b5499612c818161420b565b50612c99836000526068602052600019604060002055565b838101805190919086166001600160a01b0316847f0ac8bb53fac566d7afc05d8b4df11d7690a7b27bdc40b54e4060f9b21fb849bd8580a3612cde612924368b6126c7565b9b8151612cea81610f40565b612cf381610f40565b612ddf575050609b54919291612d1491506105d8906001600160a01b031681565b90813b156129bd57835163650f14c560e11b81526004810191909152602481018b9052939291908490604490829084905af19283156106ca57600080516020615cda83398151915293612dcc575b505b6129a5612d82612d7c612d76896122f4565b966122f4565b9661257a565b91612d8f60c089016122fe565b612d9b60e08a016126bd565b906060612dab6101008c016126bd565b93612db58a610f40565b612dbe8b610f40565b51968796169a018d866127e2565b806106be612dd992610c9e565b38612d62565b60018251612dec81610f40565b612df581610f40565b14612e16575b505050505090600080516020615cda83398151915291612d64565b90612e57612e6692612e5261088689989f9a996060612e4161077b608089015160018060801b031690565b96015101516001600160601b031690565b61236c565b906001600160801b0316612b74565b90612e8c61077b8a610a2c61088660a0612e8561077b60c086016122fe565b9301612319565b9582871115612f335750612ea0828761236c565b9a612ec9612ebb6105d86105d8609b5460018060a01b031690565b92516001600160a01b031690565b823b1561080f578d91612ef38e9288519a8b97889687956305f852cf60e51b875260048701612b87565b03925af19283156106ca57600080516020615cda83398151915293612f20575b505b909138808080612dfb565b806106be612f2d92610c9e565b38612f13565b9a612f4e612ebb6105d86105d8609b5460018060a01b031690565b823b1561080f578d91612f78869288519a8b97889687956305f852cf60e51b875260048701612b87565b03925af19283156106ca57600080516020615cda83398151915293612f9e575b50612f15565b806106be612fab92610c9e565b38612f98565b9850935093600080516020615d5a833981519152959650612fdb92506108479150610100016126bd565b0390a18190565b50612ff3612ad7612870368a6126c7565b541515612c5e565b5060e08701613009816126bd565b426001600160401b03918216109182613024575b5050612c57565b61302f9192506126bd565b161515388061301d565b506001600160401b0361304f61010089016126bd565b1615612c50565b95600080516020615d5a83398151915294955061308192935060c0915001516001600160401b031690565b90612fdb60405192839283612795565b506130a6836000526068602052604060002090565b546060880151604001516130c2906001600160601b0316610886565b1115612c27565b5060608701515160608501351415612c20565b506060870151602001516001600160a01b03166130fe6105d86080870161257a565b6001600160a01b039091161415612c19565b5060408701516001600160a01b031661312e6105d86040870161257a565b6001600160a01b039091161415612c12565b50865161314c81610f40565b613155856122f4565b9061315f82610f40565b61316881610f40565b1415612c0b565b1561317657565b60405162461bcd60e51b815260206004820152601a60248201527948443a20627579207072696365203c2066696c6c20707269636560301b6044820152606490fd5b9081526001600160801b0390911660208201526001600160a01b03909116604082015260600190565b156131e857565b60405162461bcd60e51b815260206004820152601660248201527548443a2076616c7565203c2066696c6c20707269636560501b6044820152606490fd5b919261324b6102409295946132408561026081019861245d565b61012085019061245d565b6001600160801b0316910152565b6001600160801b039182169082160391908211611a5557565b1561327957565b60405162461bcd60e51b815260206004820152600d60248201526c048443a2076616c7565203e203609c1b6044820152606490fd5b6001600160a01b0391821681529116602082015260a081019291610b859160400190612404565b9291906000936000916132eb61287036846126c7565b916132f961287036846126c7565b94613319868561330936866126c7565b61331336886126c7565b90613a02565b6040958683019161332c6105d88461257a565b33036135a65761333c9015613272565b60008581526020819052604090206001600160a01b0390613368905b5460101c6001600160a01b031690565b16151580916133808261337b36886126c7565b614bcc565b61339f61339a61056c836000526000602052604060002090565b614adb565b6133ae61077b60c088016122fe565b9161357b575b6133da816133d56133cf826000526068602052604060002090565b546123e5565b614c31565b8087600080516020615d7a8339815191528b51806133fa878c8c84613226565b0390a3609b54613414906105d8906001600160a01b031681565b90813b156135775761344289939284928c51958680948193630160928b60e31b8352883091600485016131b8565b03925af19182156106ca5761348a92613564575b506035546134849061077b90613475906001600160801b031684613b87565b61347e8761257a565b93613259565b90614e0b565b1561350e5750609b546134b49086906134ad906105d8906001600160a01b031681565b930161257a565b926134c16080830161257a565b95833b156106cf57916134f086926060945198899788968795635243975360e01b8752013592600486016127ba565b03925af180156106ca576135015750565b806106be610b8592610c9e565b91949250613537836135306129526105d86105d8609b5460018060a01b031690565b960161257a565b92823b1561080f5751632f58639d60e11b81529485938492869284926134f09260600191600485016132ae565b806106be61357192610c9e565b38613456565b8880fd5b61358d61358836876126c7565b61420b565b506135a1876133d561088660a08901612319565b6133b4565b968481969597999a5093929301926135c06105d88561257a565b330361384f5782908560018060a01b036135e7613358866000526000602052604060002090565b16159384159961360761339a61056c856000526000602052604060002090565b6136158b61337b36846126c7565b61362461077b60c083016122fe565b9b61363461077b60c088016122fe565b961561377e576136b995600080516020615d7a833981519152929091613665906001600160801b038a1611156131e1565b613678856133d561088660a08601612319565b613687888d5193849384613226565b0390a36035546134849061077b906136b2906136ac906001600160801b031687613b87565b9361257a565b9285613259565b6001600160801b038181169088161161375e575b50609b546136ef906136e9906105d8906001600160a01b031681565b9261257a565b926136fc6080830161257a565b94833b156135775751635243975360e01b815294889486949385938793859361372d936060013592600486016127ba565b03925af180156106ca5761374b575b5015613746575090565b905090565b806106be61375892610c9e565b3861373c565b6137789061348461077b6137718661257a565b928a613259565b386136cd565b50929350905061379c6001600160801b03858116908c16101561316f565b609b546137b3906105d8906001600160a01b031681565b803b1561384b57908b6137e2819594938d8c51978880948193630160928b60e31b8352309089600485016131b8565b03925af19384156106ca57868993600080516020615d7a833981519152926136b997613838575b5061381761358836836126c7565b50613833846133d56133cf826000526068602052604060002090565b613665565b806106be61384592610c9e565b38613809565b8b80fd5b855162461bcd60e51b815260206004820152601260248201527112110e881cd95b99195c881a5b9d985b1a5960721b6044820152606490fd5b1561388f57565b60405162461bcd60e51b815260206004820152600e60248201526d24221d1039b0b6b29037b93232b960911b6044820152606490fd5b156138cc57565b60405162461bcd60e51b8152602060048201526011602482015270090887440e6d2c8ca40dad2e6dac2e8c6d607b1b6044820152606490fd5b1561390c57565b60405162461bcd60e51b8152602060048201526011602482015270090887440d6d2dcc840dad2e6dac2e8c6d607b1b6044820152606490fd5b1561394c57565b60405162461bcd60e51b815260206004820152600e60248201526d24221d1039b0b6b29036b0b5b2b960911b6044820152606490fd5b1561398957565b60405162461bcd60e51b8152602060048201526012602482015271090887440c2e6e6cae840dad2e6dac2e8c6d60731b6044820152606490fd5b156139ca57565b60405162461bcd60e51b815260206004820152601060248201526f12110e881bdc99195c8818db1bdcd95960821b6044820152606490fd5b613adb61088660406060613ac9610b859897613a2089821415613888565b8651613a2b81610f40565b613a3481610f40565b1580613b65575b613a44906138c5565b613a6660016020890151613a5781610f40565b613a6081610f40565b14613905565b86840151612ad7906001600160a01b031689860151613aa390613a91906001600160a01b03166105d8565b6001600160a01b039283161415613945565b60208a0151613ab181610f40565b613aba81610f40565b15908115613b13575b50613982565b5494015101516001600160601b031690565b119182613aea575b50506139c3565b613b0b91925060406060613ac9610886936000526068602052604060002090565b113880613ae3565b8986015160208101519092506001600160a01b03168b8701516020810151909290613b46906001600160a01b03166105d8565b9116149182613b58575b505038613ac3565b5190511490503880613b50565b50613a4460018951613b7681610f40565b613b7f81610f40565b149050613a3b565b612710916001600160801b0391613b9e9190612323565b160490565b63ffffffff60e01b1663307725d960e01b8114908115613c06575b8115613bf5575b8115613be4575b8115613bd6575090565b631fd2e39360e31b14919050565b63882849c960e01b81149150613bcc565b63e8f27e9560e01b81149150613bc5565b6310e3be4b60e11b81149150613bbe565b63ffffffff60e01b1663307725d960e01b8114908115613bf5578115613be4578115613bd6575090565b613c49611ef3565b6001600160a01b0316801561129657609b80546001600160a01b031916919091179055565b613c7782610f40565b600060018303613cab57506001600160a01b031660009081526001602052604090206104d791613ca691611395565b614ea8565b6001600160a01b0390911681526001602052604090206104d791613cce91611395565b614e56565b6001600160801b03838116613d175750909150613cef82610f40565b60018203613d07576104d79161109e613ca69261137b565b6104d79161109e613cce9261137b565b613d2083610f40565b60016000848203613d44575050506104d7929161109e613d3f9261137b565b614efa565b9193613d62919360018060a01b031683528360205260408320611395565b9284915082840194613d97613d8985613d7b848a611ba3565b01546001600160801b031690565b6001600160801b0316151590565b15613db557505090613d7b613daf926104d795611ba3565b90615462565b8395939450613dca613dd79185949394611ba3565b546001600160801b031690565b945b613de5575b5050505090565b81859394951615159081613e1c575b5015613e1557908391613e0a613dca8386611ba3565b949392919091613dd9565b8193613dde565b905081613e3361077b61077b88613d7b888a611ba3565b91161438613df4565b80546001600160801b0319166001600160801b03909216919091179055565b906020600491613fb281518051613e7181610f40565b613e7a81610f40565b60ff875491168060ff19831617885561ff0086840151613e9981610f40565b613ea281610f40565b60081b169161ffff191617178655613eea613ec6604083015160018060a01b031690565b875462010000600160b01b03191660109190911b62010000600160b01b0316178755565b606081015180516001880155602081015160409091015160a01b6001600160a01b0319166001600160a01b039190911617600287015560808101516003870191613f929160c09190613f45906001600160801b031685613e3c565b613f84613f5c60a08301516001600160401b031690565b855467ffffffffffffffff60801b191660809190911b67ffffffffffffffff60801b16178555565b01516001600160401b031690565b81546001600160c01b031660c09190911b6001600160c01b031916179055565b0151910155565b90613fc382614d1a565b9160018060a01b03613fe2613358856000526000602052604060002090565b166141cd576060810180516020908101518593929061401e90614012906001600160a01b031661137b565b61137b565b84519061109e82610f40565b6080840180519091906140429061403e906001600160801b031683614fcd565b1590565b6141b1575b508151830151839061408c9061407a9061406e906001600160a01b0316611361565b611361565b87519061109e82610f40565b83516001600160801b03165b90611ba3565b9283541561410b575b5050506001810190815480156000146140dc5750936000929181610b859655556140bd610d43565b9283528201526140d7846000526000602052604060002090565b613e5b565b60009150928560046140fe614108969795976000526000602052604060002090565b01556140bd610d43565b55565b6141a9935061418f6140696140869361419b93614180614129610d43565b600080825284820152825184015161416f9061415f908e90614153906001600160a01b0316611361565b90519061109e82610f40565b8a516001600160801b0316614086565b906020600191805184550151910155565b5101516001600160a01b031690565b86519061109e82610f40565b91516001600160801b031690565b388281614095565b81516141c791906001600160801b0316906150a7565b38614047565b604051630c56ca8160e31b815260048101849052602490fd5b906040516141f381610cec565b60206004829461420281611a90565b84520154910152565b906060908183019260209161423c6142306140698588510160018060a01b0390511690565b83519061109e82610f40565b608083018051909591614257916001600160801b0316614086565b9586549260009687945b80151580614588575b156144965787816142896111018d946000526000602052604060002090565b9a8b9889516040858d6142ba6105d8846142ab8188015160018060a01b031690565b9301516001600160a01b031690565b6001600160a01b0390911614928361445f575b50508c8c8361442a575b836143da575b5050816143c9575b8a8c83614392575b505050600014614383575091816143569382614338949b8388541460001461436457015186555b60018096018281541461435c575b50509b0151976000526000602052604060002090565b60046000918281558260018201558260028201558260038201550155565b94614261565b553880614322565b0151600461437c836000526000602052604060002090565b0155614314565b98505090915098015194614356565b5101518101518a51909101516001600160601b0391821692506143b59116610886565b6001600160601b0390911614388a8c6142ed565b8b518b0151518a51511491506142e5565b6001600160401b039192935061441361441f9161440460c0809251016001600160401b0390511690565b9401516001600160401b031690565b6001600160401b031690565b911614908c8c6142dd565b6001600160401b03919293506144136144549161440460a0809251016001600160401b0390511690565b911614908c8c6142d7565b015190915061446d81610f40565b858d01519061447b82610f40565b61448482610f40565b61448d81610f40565b149085386142cd565b989295949197509592506000146145455754156144b4575b50505050565b61400d81846141806144fb6144eb6144df614069614153986145079b510160018060a01b0390511690565b88519061109e82610f40565b89516001600160801b0316614086565b60016000918281550155565b815161451c906001600160801b031682614fcd565b614528575b80806144ae565b905161453e91906001600160801b0316906151de565b3880614521565b60405162461bcd60e51b815260206004820152601b60248201527a21b0b73737ba103932b6b7bb329036b4b9b9b4b7339037b93232b960291b6044820152606490fd5b50851561426a565b6040519061459d82610cd1565b8160c06000918281528260208201528260408201526040516145be81610cb6565b83815283602082015283604082015260608201528260808201528260a08201520152565b906145ec82611fa0565b6145f96040519182610d22565b828152809261460a601f1991611fa0565b019060005b82811061461b57505050565b602090614626614590565b8282850101520161460f565b9060405161463f81610cec565b602060018294805484520154910152565b919061465a61222e565b61466261222e565b61466a61222e565b61467261222e565b82516001600160401b038111610cb157600080516020615cfa833981519152906146a5816146a08454611fdf565b6147db565b602080601f8311600114614741575081906146dc9596600092614736575b50508160011b916000199060031b1c191617905561489d565b61470560007fa16a46d94261c7517cc8ff89f61c0ce93598e3c849801011dee649a6a557d10055565b61472e60007fa16a46d94261c7517cc8ff89f61c0ce93598e3c849801011dee649a6a557d10155565b610b8561222e565b0151905038806146c3565b600080516020615cfa833981519152600052601f198316969091907f42ad5d3e1f2e6e70edcf6d991b8a3023d3fca8047a131592f9edb9fd9b89d57d926000905b8982106147c3575050908392916001946146dc9899106147aa575b505050811b01905561489d565b015160001960f88460031b161c1916905538808061479d565b80600185968294968601518155019501930190614782565b601f81116147e7575050565b600090600080516020615cfa833981519152825260208220906020601f850160051c83019410614832575b601f0160051c01915b82811061482757505050565b81815560010161481b565b9092508290614812565b601f8111614848575050565b600090600080516020615d3a833981519152825260208220906020601f850160051c83019410614893575b601f0160051c01915b82811061488857505050565b81815560010161487c565b9092508290614873565b9081516001600160401b038111610cb157600080516020615d3a833981519152906148d1816148cc8454611fdf565b61483c565b602080601f831160011461490d575081929394600092614902575b50508160011b916000199060031b1c1916179055565b0151905038806148ec565b600080516020615d3a833981519152600052601f198316959091907f5f9ce34815f8e11431c7bb75a8e6886a91478f7ffc1dbb0a98dc240fddd76b75926000905b8882106149865750508360019596971061496d575b505050811b019055565b015160001960f88460031b161c19169055388080614963565b8060018596829496860151815501950193019061494e565b156149a557565b60405162461bcd60e51b815260206004820152600f60248201526e27ab309d1036b4b9b99036b0b5b2b960891b6044820152606490fd5b156149e357565b60405162461bcd60e51b815260206004820152600c60248201526b13d5984e88195e1c1a5c995960a21b6044820152606490fd5b15614a1e57565b60405162461bcd60e51b815260206004820152600e60248201526d13d5984e881e995c9bc81cd85b1d60921b6044820152606490fd5b15614a5b57565b60405162461bcd60e51b815260206004820152600f60248201526e4f56613a207a65726f20707269636560881b6044820152606490fd5b15614a9957565b60405162461bcd60e51b815260206004820152601a60248201527913d5984e881d5b9cdd5c1c1bdc9d1959081b999d08185cdcd95d60321b6044820152606490fd5b6040810151614af8906001600160a01b039081165b16151561499e565b614b436001600160401b03614b2c81614b1b60a08601516001600160401b031690565b168015908115614bc2575b506149dc565b60c08301516001600160401b03165b161515614a17565b8051614b4e81610f40565b614b5781610f40565b614b80576060015160200151610b8590614b79906001600160a01b03166105d8565b1515614a92565b60018151614b8d81610f40565b614b9681610f40565b14614b9e5750565b60800151610b85906001600160801b0390614bba90821661077b565b161515614a54565b9050421038614b26565b6040810151909190614be8906001600160a01b03908116614af0565b15614c0d575b614b436001600160401b03614b3b60c08401516001600160401b031690565b614c2c6001600160401b03614b1b60a08401516001600160401b031690565b614bee565b906000198214614c4b576000526068602052604060002055565b60405162461bcd60e51b815260206004820152600d60248201526c13d5984e8818d85b98d95b1959609a1b6044820152606490fd5b959492909160769794927f7e112775c49cc2f5d597cc604eac1616afa66ee95cc7c4d46a97ca90b539ca338852614cb681610f40565b60f81b6020880152614cc781610f40565b60f81b602187015260601b6001600160601b0319166022860152603685015260801b6001600160801b031916605684015260c091821b6001600160c01b03199081166066850152911b16606e8201520190565b805190614d2682610f40565b614e056020820151614d3781610f40565b611e2e60018060a01b03938460408201511694606082015180519160208201511690604060018060601b03910151166040519160208301937f631e462bf410c643f967c13284911d970aa0a06097a11e4a1a7ad9549175d78a855260408401526060830152608082015260808152614dae81610d07565b5190206080820151909190614dcb906001600160801b031661077b565b614df360c0614de460a08501516001600160401b031690565b9301516001600160401b031690565b92604051978896602088019a8b614c80565b51902090565b600080809381935af115614e1b57565b60405162461bcd60e51b815260206004820152601360248201527211551217d514905394d1915497d19052531151606a1b6044820152606490fd5b80546001600160801b03169081614e6b575090565b9190915b60018101614e7d8482611ba3565b5490608091821c15614ea3576001929394614e9791611ba3565b54901c92919050614e6f565b505050565b80546001600160801b03908116929183614ec0575050565b9190925b6001908184018583614ed68484611ba3565b01541615614ef257859291614eea91611ba3565b015416614ec4565b509350509050565b906001600160801b0380821615614fbb57600180840191614f28613d89614f218686611ba3565b5460801c90565b15614f46575050614f216104d79392614f4092611ba3565b9061549a565b9094935082614f59613dca879585611ba3565b955b614f655750505050565b818692939594961615159081614f9c575b5015614f9457614f89613dca8286611ba3565b949293919083614f5b565b9382936144ae565b905082614fb261077b61077b614f21868a611ba3565b91161438614f76565b604051631b67230f60e31b8152600490fd5b6001600160801b03828116801515939084614fe9575050505090565b8354831614935090918315615005575b50505038808080613dde565b615013929350600101611ba3565b54161515388080614ff9565b80546001600160801b031660809290921b6001600160801b031916919091179055565b805460ff60801b191660809290921b60ff60801b16919091179055565b60ff6060610b859361509e6001808060801b03956150808785511682613e3c565b615090876020860151168261501f565b019460408301511685613e3c565b01511690615042565b90916001600160801b03908184169081156151cc576150c68585614fcd565b6151ba578354600095906001600160801b03165b84811696871561512057508096841060001461510857614f216151009160018801611ba3565b955b956150da565b61511a90613d7b600191828901611ba3565b95615102565b929650508093610b859593615133610d50565b6001600160801b038516815291600060208401526000604084015261515b6060840160019052565b615172600187019361516d8686611ba3565b61505f565b8416908161518d57505050615188915082613e3c565b6154d9565b10156151a557615188926151a091611ba3565b61501f565b6151b461518893600192611ba3565b01613e3c565b604051638caa2ccf60e01b8152600490fd5b604051631866497960e01b8152600490fd5b6001600160801b0391908282168015615450576151fe61403e8484614fcd565b61543e5760019384830193615226615219614f218388611ba3565b6001600160801b03161590565b8015615427575b156153cf5791610b85959391836144fb9694955b615251613d89614f218989611ba3565b156153bb57615263614f218888611ba3565b935b615272613dca8989611ba3565b61528581615280888b611ba3565b613e3c565b858389838816156153ae5761077b61077b614f21866152a394611ba3565b8b88160361539c57506151a06152b9928a611ba3565b8160ff6152d5826152ca8c8c611ba3565b015460801c60ff1690565b161415938816036152ff575b50506152ef575b5050611ba3565b6152f891615976565b38806152e8565b95819296615311615394938388615902565b61532b615321614f21868a611ba3565b6151a0848a611ba3565b6153458261528061533f614f21838c611ba3565b8a611ba3565b61536161535682613d7b878b611ba3565b826151b4858b611ba3565b6153768261528061533f84613d7b848d611ba3565b61538e615387826152ca878b611ba3565b9288611ba3565b01615042565b9338806152e1565b6151b46153a9938b611ba3565b6152b9565b50506153a9915087613e3c565b6153c981613d7b8989611ba3565b93615265565b856153de81613d7b8489611ba3565b965b6153f7575b916144fb959391610b85979593615241565b95615408613d89614f218389611ba3565b156154215761541b614f21889288611ba3565b966153e0565b956153e5565b5061543961521987613d7b8489611ba3565b61522d565b6040516326549d1560e11b8152600490fd5b60405163f482157960e01b8152600490fd5b600181016154708382611ba3565b5490608091821c15615494576001929361548991611ba3565b54901c919050615462565b50505090565b905b6001600160801b039060019083820183836154b78484611ba3565b015416156154d157906154c991611ba3565b01541661549c565b509250505090565b80546001600160801b0392808416916154f59061077b90861681565b82141580615727575b156157065760019384840191615517613dca8285611ba3565b9361553761077b61077b614f21615531613dca8a8a611ba3565b88611ba3565b8584160361564e575061555a86613d7b615554613dca8888611ba3565b86611ba3565b918660ff61556c826152ca8789611ba3565b16036155db575050906110a3856155ab8161559787966155546155d59a9b615597613dca9b8a611ba3565b01805460ff60801b1916600160811b179055565b6155c16155bb613dca8686611ba3565b84611ba3565b01805460ff60801b1916600160801b179055565b906154d9565b90959391506155f461077b61077b86613d7b8688611ba3565b9086161461562e575b50613dca61518892826110a3615619613dca8961562897611ba3565b926155ab816155978686611ba3565b82615825565b9350613dca6151889261562892615645878761574a565b925092506155fd565b9150615669614f21615663613dca8787611ba3565b85611ba3565b918660ff61567b826152ca8789611ba3565b16036156a6575050906110a3856155ab8161559787966155546155d59a9b615597613dca9b8a611ba3565b90959391506156be61077b61077b614f218587611ba3565b146156e6575b50613dca61518892826110a3615619613dca896156e097611ba3565b8261574a565b9350613dca615188926156e0926156fd8787615825565b925092506156c4565b50508054610b859250600191615597916001600160801b0316908301611ba3565b50600160ff615743826152ca818801614086613dca8883611ba3565b16146154fe565b615280610b8592600183016157646001613d7b8484611ba3565b9384615773613dca8585611ba3565b91615781614f218386611ba3565b6157918160016151b48989611ba3565b6001600160801b039086818316615811575b50506157b3846152808588611ba3565b8381166157d357506157c59250613e3c565b6110a3826151a08684611ba3565b90506157e861077b61077b614f218688611ba3565b90851603615802576151a06157fd9284611ba3565b6157c5565b60016151b46157fd9385611ba3565b61528061581e9288611ba3565b38866157a3565b615280610b85926001830161583d614f218383611ba3565b938461584c613dca8585611ba3565b9161585c6001613d7b8487611ba3565b61586a816151a08888611ba3565b6001600160801b0390868183166158ee575b505061588c846152808588611ba3565b8381166158ae575061589e9250613e3c565b6110a38260016151b48785611ba3565b90506158c561077b61077b6001613d7b8789611ba3565b908516036158e15760016151b46158dc9385611ba3565b61589e565b6151a06158dc9284611ba3565b6152806158fb9288611ba3565b388661587c565b6001600160801b039260018201908461591b8284611ba3565b54169461592c866152808786611ba3565b8561593e57505050610b859250613e3c565b9091925061594c8584611ba3565b5460801c91161460001461596757610b85926151a091611ba3565b6151b4610b8593600192611ba3565b905b81546001600160801b03828116916159929161077b911681565b81141580615cbc575b15615caa5760016159b2613dca8286019485611ba3565b916159c661077b61077b614f218688611ba3565b03615b47576159d981613d7b8486611ba3565b928160ff6159eb826152ca8886611ba3565b1614615b0c575b81615a10615a0a826152ca615554614f218a88611ba3565b60ff1690565b141580615aeb575b15615a3357615a2b92936155c191611ba3565b905b90615978565b9061559782858380615a59615a0a826152ca61553182613d7b615a909f6156e09e611ba3565b03615aa2575b613d7b61408692615a82615a77846152ca8c89611ba3565b8461538e8489611ba3565b6155bb836155978b88611ba3565b80546001600160801b03165b90615a2d565b90615aba615ace92615597615554614f218588611ba3565b615ac8856155c18386611ba3565b88615825565b61408683613d7b615ae382613d7b8a87611ba3565b925050615a5f565b5081615b05615a0a826152ca61555482613d7b8b89611ba3565b1415615a18565b9281615597615b1b9286611ba3565b615b29816155c18486611ba3565b615b33828561574a565b615b4181613d7b8486611ba3565b926159f2565b615b54614f218385611ba3565b928160ff615b66826152ca8886611ba3565b1614615c70575b81615b86615a0a826152ca61555482613d7b8b89611ba3565b141580615c50575b15615ba157615a9c92936155c191611ba3565b90615597828583615bcb615a0a826152ca615bc5614f21615a909d6156289c611ba3565b87611ba3565b03615c08575b614f2161408691615bf4615be9876152ca8b88611ba3565b8761538e8488611ba3565b615c02866155978a87611ba3565b83611ba3565b80615c218561559761555482613d7b615c359789611ba3565b615c2f856155c18386611ba3565b8861574a565b614086614f21615c48614f218885611ba3565b915050615bd1565b5081615c69615a0a826152ca615554614f218a88611ba3565b1415615b8e565b9281615597615c7f9286611ba3565b615c8d816155c18486611ba3565b615c978285615825565b615ca4614f218385611ba3565b92615b6d565b5061559760019182610b859401611ba3565b50600160ff615cd1826152ca86828901611ba3565b16141561599b56fefc37f2ff950f95913eb7182357ba3c14df60ef354bc7d6ab1ba2815f249fffe6a16a46d94261c7517cc8ff89f61c0ce93598e3c849801011dee649a6a557d1029016d09d72d40fdae2fd8ceac6b6234c7706214fd39c1cd1e609a0528c199300a16a46d94261c7517cc8ff89f61c0ce93598e3c849801011dee649a6a557d10343d1f368251ebe03c021962d50212d072e7ccee5c8ad3f541d93d0dc43bbd420f629aecab94607bc43ce4aebd564bf6e61c7327226a797b002de724b9944b20ecd5ed15c6e187e77e9aee88184c21f4f2182ab5827cb3b7e07fbedcd63f033009b779b17422d0df92223018b32b4d1fa46e071723d6817e2486d003becc55f00f0c57e16840df040f15088dc2f81fe391c3923bec73e23a9662efc9c229c6a00a2646970667358221220bf5a2539529d4da89a6d3f014e4314041f903bfaf3b19eb7973f4772ec5840bd64736f6c63430008140033",
  "linkReferences": {},
  "deployedLinkReferences": {}
}